S551    000000111010520111             010520110000000000015000000000000000000000000000000000000000000000000000000000000000000000000000000000000000000000000000001500000000000000165000438010070113                               00000000000000000          0000000000000000000000000000000000CIF               N1IPI                                                                                                   000000000                      
S011    123456789010520111             010520110000000000018000000000000000000000000000000000000000000000000000000000000000000000000000000000000000000000000000000000000000000000180000438010070113                               00000000000000000          0000000000000000000000000000000000CIF               N1EXPORTACAO                                                                                            000000000                      
E015    0010520110105201114            010520110000000000000000000000000000000000000000000000000000000000000000000000000000000000000000000000000100000000000000000000000000000000110000                                           00000000000000000          0000000000000000000000000000000000CIF               N1                                                                                                      000000000                      
E015    0020520110105201114            010520110000000000000000000000000000000000000000000000000000000000000000000000000000000000000000000000000000000000000000000000000000000000100000                                           00000000000000000          0000000000000000000000000000000000CIF               N1                                                                                                      000000000                      
E015    0030520110105201114            010520110000000000000000000000000000000000000000000000000000000000000000000000000000000000000000000000000000000000000000000000000000000000100000                                           00000000000000000          0000000000000000000000000000000000CIF               N1                                                                                                      000000000                      
S015    0040520110105201114            010520110000000000010000000000000000000000000000000000000000000000000000000000000000000000000000000000000100000000000000000000000000000000110000                                           00000000000000000          0000000000000000000000000000000000CIF               N1IPI                                                                                                   000000000                      
S015    0050520110105201114            010520110000000000010000000000000000000000000000000000000000000000000000000000000000000000000000000000000000000000000000000000000000000000100000                                           00000000000000000          0000000000000000000000000000000000CIF               N1IPI                                                                                                   000000000                      
S015    0060520110105201114            010520110000000000010000000000000000000000000000000000000000000000000000000000000000000000000000000000000000000000000000000000000000000000100000                                           00000000000000000          0000000000000000000000000000000000CIF               N1IPI                                                                                                   000000000                      
S015    0080520110105201118            010520110000000000010000000000000000000000000000000000000000000000000000000000000000000000000000000000000000000000000000000000000000000000100000256179301                                  00000000000000000          0000000000000000000000000000000000CIF               N1IPI                                                                                                   000000000                      
S015    0090520110105201118            010520110000000000010000000000000000000000000000000000000000000000000000000000000000000000000000000000000000000000000000000000000000000000100000256179301                                  00000000000000000          0000000000000000000000000000000000CIF               N1IPI                                                                                                   000000000                      
S015    0092520110105201113            010520110000000000010000000000000000000000000000000000000000000000000000000000000000000000000000000000000000000000000000000000000000000000100000438010070113                               00000000000000000          0000000000000000000000000000000000CIF               N1IPI                                                                                                   000000000                      
S015    0093520110105201113            010520110000000000100000000000000000000000000000000000000000000000000000000000000000000000000000000000000000000000000000000000000000000001000000438010070113                               00000000000000000          0000000000000000000000000000000000CIF               N1IPI                                                                                                   000000000                      
S011    0000830100305201113            030520110000000000038000000000000000000000000000000000000000000000000000000000000000000000000000000000000000000000000000000000000000000000380000438010070113  Rodoviário                   00000000000000000          0000000000000000000000000000000000FOB               N2                                                                                                      000000000                      
S011    0000830110305201113            030520110000000000078000000000000000000000000000000000000000000000000000000000000000000000000000000000000000000000000000000000000000000000780000438010070113  Rodoviário                   00000000000000000          0000000000037404500000000000352072FOB               N2ALC-AC                                                                                                000000000                      
S011    0000830120305201118            030520110000000000066000000000000000000000000000000000000000000000000000000000000000000000000000000000000000000000000000000000000000000000000000256179301     Outros         T99999        00000000000000000          0000000000000000000000000000000000FOB               S1                                                                                                      000000000                      
S011    0000830130305201113            030520110000000000039890000000000000000000000000000000000000000000000000000000000000000000000000000000000000000000000000000000000000000000398900438010070113  Rodoviário                   00000000000000000          0000000000000000000000000000000000FOB               N2                                                                                                      000000000                      
S011    0000830140305201113            030520110000000000016000000000000000000000000000000000000000000000000000000000000000000000000000000000000000000000000000000000000000000000160000438010070113  Rodoviário                   00000000000000000          0000000000000000000000000000000000FOB               N2                                                                                                      000000000                      
S011    0000830150305201113            030520110000000000124100000000000000000000000000000000000000000000000000000000000000000000000000000000000000000000000000000000000000000001241000438010070113  Rodoviário                   00000000000000000          0000000000000000000000000000000000FOB               N2                                                                                                      000000000                      
S011    0000830170305201113            030520110000000000075600000000000000000000000000000000000000000000000000000000000000000000000000000000000000000000000000000000000000000000756000438010070113  Rodoviário                   00000000000000000          0000000000000000000000000000000000FOB               N2Nota de serviço informática                                                                           000000000                      
S551    0000830180305201113            030520110000000000010000000000000000000000000000000000000000000000000000000000000000000000000000000000000000000000000000000000000000000000100000438010070113  Rodoviário                   00000000000000000          0000000000000000000000000000000000FOB               N2                                                                                                      000000000                      
S011    0000830190305201113            030520110000000000200000000000000000000000000000000000000000000000000000000000000000000000000000000000000000000000000000000000000000000002000000438010070113  Rodoviário                   00000000000000000          0000000000000000000000000000000000FOB               N2                                                                                                      000000000                      
S011    0000830200305201113            030520110000000000034500000000000000000000000000000000000000000000000000000000000000000000000000000000000000000000000000000000000000000000345000438010070113  Rodoviário                   00000000000000000          0000000000000000000000000000000000FOB               N2                                                                                                      000000000                      
S551    0000830210305201113            030520110000000000010000000000000000000000000000000000000000000000000000000000000000000000000000000000000000000000000000000000000000000000100000438010070113  Rodoviário                   00000000000000000          0000000000000000000000000000000000FOB               N2                                                                                                      000000000                      
S012    0002555760305201170            030520110000000000100000000000000000000000000000000000000000000000000000000000000000000000000000000000000000000000000000000000000000000001000000438010070113  Rodoviário                   00000000000000000          0000000000000000000000000000000000FOB               N1                                                                                                      000000000                      
S012    0002555780305201170            030520110000000000010000000000000000000000000000000000000000000000000000000000000000000000000000000000000000000000000000000000000000000000000000438010070113  Rodoviário                   00000000000000000          0000000000000000000000000000000000FOB               S1                                                                                                      000000000                      
S012    0002555790305201170            030520110000000000394817500000000000000000000000000000000000000000000000000000000000000000000000000000000000000000000000000000000000000003948175438010070113  Rodoviário                   00000000000000000          0000000000000000000000000000000000FOB               N1                                                                                                      000000000                      
S012    0002555800305201113            030520110000000000240000000000000000000000000000000000000000000000000000000000000000000000000000000000000000000000000000000000000000000002400000438010070113  Rodoviário                   00000000000000000          0000000000000000000000000000000000FOB               N2                                                                                                      000000000                      
S012    0002555810305201113            030520110000000000038900000000000000000000000000000000000000000000000000000000000000000000000000000000000000000000000000000000000000000000389000438010070113  Rodoviário                   00000000000000000          0000000000000000000000000000000000FOB               N2                                                                                                      000000000                      
S012    0002555820305201113            030520110000000000054100000000000000000000000000000000000000000000000000000000000000000000000000000000000000000000000000000000000000000000541000438010070113  Rodoviário                   00000000000000000          0000000000000000000000000000000000FOB               N2                                                                                                      000000000                      
S012    0002555830305201170            030520110000000000010000000000000000000000000000000000000000000000000000000000000000000000000000000000000000000000000000000000000000000000100000438010070113  Rodoviário                   00000000000000000          0000000000000000000000000000000000FOB               N1                                                                                                      000000000                      
S552    0002555840305201113            030520110000000000100000000000000000000000000000000000000000000000000000000000000000000000000000000000000000000000000000000000000000000001000000438010070113  Rodoviário                   00000000000000000          0000000000000000000000000000000000FOB               N2IPI                                                                                                   000000000                      
S552    0002555850305201170            030520110000000000037890000000000000000000000000000000000000000000000000000000000000000000000000000000000000000000000000000000000000000000378900438010070113  Rodoviário                   00000000000000000          0000000000000000000000000000000000FOB               N1IPI                                                                                                   000000000                      
S552    0002555860305201170            030520110000000000025000000000000000000000000000000000000000000000000000000000000000000000000000000000000000000000000000000000000000000000000000438010070113  Rodoviário                   00000000000000000          0000000000000000000000000000000000FOB               S1IPI                                                                                                   000000000                      
S555    0000750960305201112455         0305201100000000000148938000000000000000000000000000000000000000000000000000000000000000061060000000000000000000000000000020930000000000001759740014673520009                              00000000000000000          0000000000000000000000000000000000CIF               N1IPI                                                                                                   000000000                      
S555    0000750970305201112455         0305201100000000000061488000000000000000000000000000000000000000000000000000000000000000025210000000000000000000000000000008887000000000000728960014673520009                              00000000000000000          0000000000000000000000000000000000CIF               N1IPI                                                                                                   000000000                      
S555    0000750980305201112455         0305201100000000000600368000000000000000000000000000000000000000000000000000000000000000246150000000000000000000000000000086771000000000007117540014673520009                              00000000000000000          0000000000000000000000000000000000CIF               N1IPI                                                                                                   000000000                      
S555    0000750990305201112455         0305201100000000000108628000000000000000000000000000000000000000000000000000000000000000044540000000000000000000000000000015701000000000001287830014673520009                              00000000000000000          0000000000000000000000000000000000CIF               N1IPI                                                                                                   000000000                      
S555    0000751000305201112455         0305201100000000000061488000000000000000000000000000000000000000000000000000000000000000025210000000000000000000000000000008887000000000000728960014673520009                              00000000000000000          0000000000000000000000000000000000CIF               N1IPI                                                                                                   000000000                      
S555    0000751010305201112455         0305201100000000000574233000000000000000000000000000000000000000000000000000000000000000235440000000000000000000000000000080692000000000006784690014673520009                              00000000000000000          0000000000000000000000000000000000CIF               N1IPI                                                                                                   000000000                      
S555    0000751020305201112455         0305201100000000000036893000000000000000000000000000000000000000000000000000000000000000015130000000000000000000000000000005332000000000000437380014673520009                              00000000000000000          0000000000000000000000000000000000CIF               N1IPI                                                                                                   000000000                      
S555    0000751030305201112455         0305201100000000000050728000000000000000000000000000000000000000000000000000000000000000020800000000000000000000000000000007332000000000000601400014673520009                              00000000000000000          0000000000000000000000000000000000CIF               N1IPI                                                                                                   000000000                      
S555    0000751040305201112455         0305201100000000000030744000000000000000000000000000000000000000000000000000000000000000012610000000000000000000000000000004443000000000000364480014673520009                              00000000000000000          0000000000000000000000000000000000CIF               N1IPI                                                                                                   000000000                      
S555    0000751050305201112455         0305201100000000000023058000000000000000000000000000000000000000000000000000000000000000009450000000000000000000000000000003333000000000000273360014673520009                              00000000000000000          0000000000000000000000000000000000CIF               N1IPI                                                                                                   000000000                      
S555    0000751060305201112455         0305201100000000000030744000000000000000000000000000000000000000000000000000000000000000012610000000000000000000000000000004443000000000000364480014673520009                              00000000000000000          0000000000000000000000000000000000CIF               N1IPI                                                                                                   000000000                      
S555    0000751070305201112455         0305201100000000000049361000000000000000000000000000000000000000000000000000000000000000020240000000000000000000000000000007135000000000000585200014673520009                              00000000000000000          0000000000000000000000000000000000CIF               N1IPI                                                                                                   000000000                      
S555    0000751080305201112455         0305201100000000000030744000000000000000000000000000000000000000000000000000000000000000012610000000000000000000000000000004443000000000000364480014673520009                              00000000000000000          0000000000000000000000000000000000CIF               N1IPI                                                                                                   000000000                      
S555    0000751090305201112455         0305201100000000000026304000000000000000000000000000000000000000000000000000000000000000010780000000000000000000000000000003696000000000000310780014673520009                              00000000000000000          0000000000000000000000000000000000CIF               N1IPI                                                                                                   000000000                      
S555    0000751100305201114094         0305201100000000000114548000000000000000000000000000000000000000000000000000000000000000000000000000000000000000000000000015903000000000001304510014673520009                              00000000000000000          0000000000000000000000000000000000CIF               N1IPI                                                                                                   000000000                      
S555    0000751110305201118138         0305201100000000001053098000000000000000000000000000000000000000000000000000000000000000000000000000000000000000000000000146210000000000011993080014673520009                              00000000000000000          0000000000000000000000000000000000CIF               N1IPI                                                                                                   000000000                      
S555    0000751120305201118138         0305201100000000000687193000000000000000000000000000000000000000000000000000000000000000000000000000000000000000000000000092763000000000007799560014673520009                              00000000000000000          0000000000000000000000000000000000CIF               N1IPI                                                                                                   000000000                      
S555    0000751130305201113898         0305201100000000000623455000000000000000000000000000000000000000000000000000000000000000000000000000000000000000000000000084159000000000007076140014673520009                              00000000000000000          0000000000000000000000000000000000CIF               N1IPI                                                                                                   000000000                      
S555    0000751140305201111751         0305201100000000000401623000000000000000000000000000000000000000000000000000000000000000000000000000000000000000000000000055762000000000004573850014673520009                              00000000000000000          0000000000000000000000000000000000CIF               N1IPI                                                                                                   000000000                      
S555    000075115030520113830          0305201100000000000128654000000000000000000000000000000000000000000000000000000000000000000000000000000000000000000000000017368000000000001460220014673520009                              00000000000000000          0000000000000000000000000000000000CIF               N1IPI                                                                                                   000000000                      
S555    000075116030520119867          0305201100000000000605866000000000000000000000000000000000000000000000000000000000000000000000000000000000000000000000000084122000000000006899880014673520009                              00000000000000000          0000000000000000000000000000000000CIF               N1IPI                                                                                                   000000000                      
S555    0000751170305201116215         0305201100000000000067556000000000000000000000000000000000000000000000000000000000000000000000000000000000000000000000000009379000000000000769350014673520009                              00000000000000000          0000000000000000000000000000000000CIF               N1IPI                                                                                                   000000000                      
S555    0000751180305201116215         0305201100000000000463910000000000000000000000000000000000000000000000000000000000000000000000000000000000000000000000000064409000000000005283190014673520009                              00000000000000000          0000000000000000000000000000000000CIF               N1IPI                                                                                                   000000000                      
S555    0000751190305201116215         0305201100000000000113097000000000000000000000000000000000000000000000000000000000000000000000000000000000000000000000000015702000000000001287990014673520009                              00000000000000000          0000000000000000000000000000000000CIF               N1IPI                                                                                                   000000000                      
S555    0000751200305201117750         0305201100000000000197320000000000000000000000000000000000000000000000000000000000000000000000000000000000000000000000000027396000000000002247160014673520009                              00000000000000000          0000000000000000000000000000000000CIF               N1IPI                                                                                                   000000000                      
S555    0000751210305201117750         0305201100000000000462696000000000000000000000000000000000000000000000000000000000000000000000000000000000000000000000000064240000000000005269360014673520009                              00000000000000000          0000000000000000000000000000000000CIF               N1IPI                                                                                                   000000000                      
S555    0000751220305201113599         0305201100000000000647436000000000000000000000000000000000000000000000000000000000000000000000000000000000000000000000000089891000000000007373270014673520009                              00000000000000000          0000000000000000000000000000000000CIF               N1IPI                                                                                                   000000000                      
S555    000075123030520119868          0305201100000000001323374000000000000000000000000000000000000000000000000000000000000000000000000000000000000000000000000183737000000000015071110014673520009                              00000000000000000          0000000000000000000000000000000000CIF               N1IPI                                                                                                   000000000                      
S555    000075124030520118610          0305201100000000000372981000000000000000000000000000000000000000000000000000000000000000000000000000000000000000000000000050348000000000004233290014673520009                              00000000000000000          0000000000000000000000000000000000CIF               N1IPI                                                                                                   000000000                      
S555    0000751250305201116015         030520110000000000010620000000000000000000000000000000000000000000000000000000000000000000000000000000000000000000000000000650000000000000112700438010070113                               00000000000000000          0000000000000000000000000000000000CIF               N1IPI                                                                                                   000000000                      
S555    0000751260305201116015         030520110000000000013590000000000000000000000000000000000000000000000000000000000000000000000000000000000000000000000000000782800000000000143728438010070113                               00000000000000000          0000000000000000000000000000000000CIF               N1IPI                                                                                                   000000000                      
S555    0000751270305201118591         030520110000000000027060000000000000000000000000000000000000000000000000000000000000000000000000000000000014900000000000001720100000000000289291438010070113                               00000000000000000          0000000000000000000000000000000000CIF               N1IPI                                                                                                   000000000                      
S555    0000751280305201117015         030520110000000000007712200000000000000000000000000000000000000000000000000000000000000000000000000000000000000000000000000444200000000000081564438010070113                               00000000000000000          0000000000000000000000000000000000CIF               N1IPI                                                                                                   000000000                      
S555    0000751290305201117015         030520110000000000032851000000000000000000000000000000000000000000000000000000000000000000000000000000000000000000000000002010400000000000348614438010070113                               00000000000000000          0000000000000000000000000000000000CIF               N1IPI                                                                                                   000000000                      
S555    0000751300305201112367         030520110000000000002969500000000000000000000000000000000000000000000000000000000000000000000000000000000000000000000000000181700000000000031512438010070113                               00000000000000000          0000000000000000000000000000000000CIF               N1IPI                                                                                                   000000000                      
S555    0000751310305201112367         030520110000000000026780100000000000000000000000000000000000000000000000000000000000000000000000000000000000000000000000001542600000000000283227438010070113                               00000000000000000          0000000000000000000000000000000000CIF               N1IPI                                                                                                   000000000                      
S555    0000751320305201112367         030520110000000000014462400000000000000000000000000000000000000000000000000000000000000000000000000000000000000000000000000885100000000000153475438010070113                               00000000000000000          0000000000000000000000000000000000CIF               N1IPI                                                                                                   000000000                      
S555    0000751330305201112367         030520110000000000001457200000000000000000000000000000000000000000000000000000000000000000000000000000000000000000000000000089200000000000015464438010070113                               00000000000000000          0000000000000000000000000000000000CIF               N1IPI                                                                                                   000000000                      
S555    0000751340305201112367         030520110000000000008303600000000000000000000000000000000000000000000000000000000000000000000000000000000000000000000000000508200000000000088118438010070113                               00000000000000000          0000000000000000000000000000000000CIF               N1IPI                                                                                                   000000000                      
S555    0000751350305201112367         030520110000000000066153400000000000000000000000000000000000000000000000000000000000000000000000000000000000000000000000003810400000000000699638438010070113                               00000000000000000          0000000000000000000000000000000000CIF               N1IPI                                                                                                   000000000                      
S555    0000751360305201112367         030520110000000000010668200000000000000000000000000000000000000000000000000000000000000000000000000000000000000000000000000652800000000000113210438010070113                               00000000000000000          0000000000000000000000000000000000CIF               N1IPI                                                                                                   000000000                      
S555    0000751370305201112367         030520110000000000208714600000000000000000000000000000000000000000000000000000000000000000000000000000000000000000000000012773100000000002214877438010070113                               00000000000000000          0000000000000000000000000000000000CIF               N1IPI                                                                                                   000000000                      
S555    0000751380305201117526         030520110000000000000992600000000000000000000000000000000000000000000000000000000000000000000000000000000004970000000000000082100000000000011244438010070113                               00000000000000000          0000000000000000000000000000000000CIF               N1IPI                                                                                                   000000000                      
S555    0000751390305201117526         030520110000000000025601600000000000000000000000000000000000000000000000000000000000000000000000000000000000000000000000001474600000000000270762438010070113                               00000000000000000          0000000000000000000000000000000000CIF               N1IPI                                                                                                   000000000                      
S555    0000751400305201112947         030520110000000000040874600000000000000000000000000000000000000000000000000000000000000000000000000000000000000000000000002354400000000000432290438010070113                               00000000000000000          0000000000000000000000000000000000CIF               N1IPI                                                                                                   000000000                      
S555    0000751410305201118361         030520110000000000026080000000000000000000000000000000000000000000000000000000000000000000000000000000000000000000000000000000000000000000260800438010070113                               00000000000000000          0000000000000000000000000000000000CIF               N1IPI                                                                                                   000000000                      
S555    0000751420305201117752         030520110000000000034772800000000000000000000000000000000000000000000000000000000000000000000000000000000000000000000000002128100000000000369009438010070113                               00000000000000000          0000000000000000000000000000000000CIF               N1IPI                                                                                                   000000000                      
S555    0000751430305201114317         030520110000000000129899900000000000000000000000000000000000000000000000000000000000000000000000000000000000000000000000007482300000000001373822438010070113                               00000000000000000          0000000000000000000000000000000000CIF               N1IPI                                                                                                   000000000                      
S555    0000751440305201114317         030520110000000000031308200000000000000000000000000000000000000000000000000000000000000000000000000000000000000000000000001916000000000000332242438010070113                               00000000000000000          0000000000000000000000000000000000CIF               N1IPI                                                                                                   000000000                      
S555    0000751450305201115511         030520110000000000019710100000000000000000000000000000000000000000000000000000000000000000000000000000000000000000000000001206300000000000209164438010070113                               00000000000000000          0000000000000000000000000000000000CIF               N1IPI                                                                                                   000000000                      
S555    0000751460305201118614         030520110000000000015230500000000000000000000000000000000000000000000000000000000000000000000000000000000000000000000000000932100000000000161626438010070113                               00000000000000000          0000000000000000000000000000000000CIF               N1IPI                                                                                                   000000000                      
S555    0000751470305201118614         030520110000000000081204300000000000000000000000000000000000000000000000000000000000000000000000000000000000000000000000004969700000000000861740438010070113                               00000000000000000          0000000000000000000000000000000000CIF               N1IPI                                                                                                   000000000                      
S555    0000751480305201153259         030520110000000000020990800000000000000000000000000000000000000000000000000000000000000000000000000000000000000000000000000000000000000000209908438010070113                               00000000000000000          0000000000000000000000000000000000CIF               N1IPI                                                                                                   000000000                      
S555    0000751490305201112257         030520110000000000074431300000000000000000000000000000000000000000000000000000000000000000000000000000000000000000000000004287300000000000787186438010070113                               00000000000000000          0000000000000000000000000000000000CIF               N1IPI                                                                                                   000000000                      
S555    000075150030520111302          030520110000000000145255200000000000000000000000000000000000000000000000000000000000000000000000000000000000000000000000008889700000000001541449438010070113                               00000000000000000          0000000000000000000000000000000000CIF               N1IPI                                                                                                   000000000                      
S555    0000751510305201112943         030520110000000000014379900000000000000000000000000000000000000000000000000000000000000000000000000000000000000000000000000880000000000000152599438010070113                               00000000000000000          0000000000000000000000000000000000CIF               N1IPI                                                                                                   000000000                      
S555    0000751520305201112943         030520110000000000035386100000000000000000000000000000000000000000000000000000000000000000000000000000000000000000000000002165600000000000375517438010070113                               00000000000000000          0000000000000000000000000000000000CIF               N1IPI                                                                                                   000000000                      
S555    0000751530305201112943         030520110000000000007625300000000000000000000000000000000000000000000000000000000000000000000000000000000000000000000000000439200000000000080645438010070113                               00000000000000000          0000000000000000000000000000000000CIF               N1IPI                                                                                                   000000000                      
S555    0000751540305201112943         030520110000000000000769900000000000000000000000000000000000000000000000000000000000000000000000000000000000000000000000000044300000000000008142438010070113                               00000000000000000          0000000000000000000000000000000000CIF               N1IPI                                                                                                   000000000                      
S555    0000751550305201112943         030520110000000000007506100000000000000000000000000000000000000000000000000000000000000000000000000000000000000000000000000432400000000000079385438010070113                               00000000000000000          0000000000000000000000000000000000CIF               N1IPI                                                                                                   000000000                      
S555    0000751560305201112943         030520110000000000009238300000000000000000000000000000000000000000000000000000000000000000000000000000000000000000000000000565300000000000098036438010070113                               00000000000000000          0000000000000000000000000000000000CIF               N1IPI                                                                                                   000000000                      
S555    0000751570305201112943         030520110000000000019118200000000000000000000000000000000000000000000000000000000000000000000000000000000000000000000000001101200000000000202194438010070113                               00000000000000000          0000000000000000000000000000000000CIF               N1IPI                                                                                                   000000000                      
S555    0000751580305201112943         030520110000000000004545800000000000000000000000000000000000000000000000000000000000000000000000000000000000000000000000000261900000000000048077438010070113                               00000000000000000          0000000000000000000000000000000000CIF               N1IPI                                                                                                   000000000                      
S555    0000751590305201112943         030520110000000000006195600000000000000000000000000000000000000000000000000000000000000000000000000000000000000000000000000379200000000000065748438010070113                               00000000000000000          0000000000000000000000000000000000CIF               N1IPI                                                                                                   000000000                      
S555    0000751600305201112943         030520110000000000006672100000000000000000000000000000000000000000000000000000000000000000000000000000000000000000000000000384300000000000070564438010070113                               00000000000000000          0000000000000000000000000000000000CIF               N1IPI                                                                                                   000000000                      
S555    0000751610305201112943         030520110000000000014086700000000000000000000000000000000000000000000000000000000000000000000000000000000000000000000000000811400000000000148981438010070113                               00000000000000000          0000000000000000000000000000000000CIF               N1IPI                                                                                                   000000000                      
S555    0000751620305201112943         030520110000000000051636300000000000000000000000000000000000000000000000000000000000000000000000000000000000000000000000003160200000000000547965438010070113                               00000000000000000          0000000000000000000000000000000000CIF               N1IPI                                                                                                   000000000                      
S555    0000751630305201112943         030520110000000000003684300000000000000000000000000000000000000000000000000000000000000000000000000000000000000000000000000225500000000000039098438010070113                               00000000000000000          0000000000000000000000000000000000CIF               N1IPI                                                                                                   000000000                      
S555    0000751640305201112943         030520110000000000127431200000000000000000000000000000000000000000000000000000000000000000000000000000000000000000000000007340100000000001347713438010070113                               00000000000000000          0000000000000000000000000000000000CIF               N1IPI                                                                                                   000000000                      
S555    00007516503052011769           030520110000000000005517400000000000000000000000000000000000000000000000000000000000000000000000000000000000000000000000000337700000000000058551438010070113                               00000000000000000          0000000000000000000000000000000000CIF               N1IPI                                                                                                   000000000                      
S555    00007516603052011539           030520110000000000002700000000000000000000000000000000000000000000000000000000000000000000000000000000000000000000000000000165200000000000028652438010070113                               00000000000000000          0000000000000000000000000000000000CIF               N1IPI                                                                                                   000000000                      
S555    00007516703052011690           030520110000000000007186600000000000000000000000000000000000000000000000000000000000000000000000000000000000000000000000000439900000000000076265438010070113                               00000000000000000          0000000000000000000000000000000000CIF               N1IPI                                                                                                   000000000                      
S555    00007516803052011690           030520110000000000018769000000000000000000000000000000000000000000000000000000000000000000000000000000000000000000000000001148700000000000199177438010070113                               00000000000000000          0000000000000000000000000000000000CIF               N1IPI                                                                                                   000000000                      
S555    00007516903052011690           030520110000000000007689600000000000000000000000000000000000000000000000000000000000000000000000000000000000000000000000000442900000000000081325438010070113                               00000000000000000          0000000000000000000000000000000000CIF               N1IPI                                                                                                   000000000                      
S555    00007517003052011690           030520110000000000103931800000000000000000000000000000000000000000000000000000000000000000000000000000000000000000000000006360600000000001102924438010070113                               00000000000000000          0000000000000000000000000000000000CIF               N1IPI                                                                                                   000000000                      
S555    000075171030520119608          030520110000000000014410000000000000000000000000000000000000000000000000000000000000000000000000000000000000000000000000000881900000000000152919438010070113                               00000000000000000          0000000000000000000000000000000000CIF               N1IPI                                                                                                   000000000                      
S555    0000751720305201112435         030520110000000000050668400000000000000000000000000000000000000000000000000000000000000000000000000000000000000000000000003101100000000000537695438010070113                               00000000000000000          0000000000000000000000000000000000CIF               N1IPI                                                                                                   000000000                      
S555    0000751730305201112066         030520110000000000055360200000000000000000000000000000000000000000000000000000000000000000000000000000000000000000000000003388100000000000587483438010070113                               00000000000000000          0000000000000000000000000000000000CIF               N1IPI                                                                                                   000000000                      
S555    000075174030520119540          030520110000000000009740300000000000000000000000000000000000000000000000000000000000000000000000000000000000000000000000000561000000000000103013438010070113                               00000000000000000          0000000000000000000000000000000000CIF               N1IPI                                                                                                   000000000                      
S555    000075175030520111489          030520110000000000019144800000000000000000000000000000000000000000000000000000000000000000000000000000000000000000000000001171600000000000203164438010070113                               00000000000000000          0000000000000000000000000000000000CIF               N1IPI                                                                                                   000000000                      
S555    000075176030520111489          030520110000000000053478800000000000000000000000000000000000000000000000000000000000000000000000000000000000000000000000003080500000000000565593438010070113                               00000000000000000          0000000000000000000000000000000000CIF               N1IPI                                                                                                   000000000                      
S555    00007517703052011273           030520110000000000009283200000000000000000000000000000000000000000000000000000000000000000000000000000000000000000000000000568100000000000098513438010070113                               00000000000000000          0000000000000000000000000000000000CIF               N1IPI                                                                                                   000000000                      
S555    0000751780305201175315         030520110000000000072000000000000000000000000000000000000000000000000000000000000000000000000000000000000000000000000000000000000000000000720000438010070113                               00000000000000000          0000000000000000000000000000000000FOB               N1                                                                                                      000000000                      
S555    0000751790305201117895         030520110000000000656371200000000000000000000000000000000000000000000000000000000000000000000000000000000000000000000000066621600000000007229928134006453                                  00000000000000000          0000000000000000000000000000000000CIF               N1decreto 6006                                                                                          000000000                      
S555    0000751800305201118646         030520110000000000013228300000000000000000000000000000000000000000000000000000000000000006495000000000000000000000000000000000000000000000138778                                           00000000000000000          0000000000000000000000000000000000CIF               N1IPI                                                                                                   000000000                      
S555    0000751810305201118646         030520110000000000017010000000000000000000000000000000000000000000000000000000000000000008352000000000000000000000000000000000000000000000178452                                           00000000000000000          0000000000000000000000000000000000CIF               N1IPI                                                                                                   000000000                      
S555    0000751820305201113622         030520110000000000008699500000000000000000000000000000000000000000000000000000000000000000000000000000000000000000000000000000000000000000086995                                           00000000000000000          0000000000000000000000000000000000CIF               N1IPI                                                                                                   000000000                      
S555    0000751830305201117769         030520110000000000025313400000000000000000000000000000000000000000000000000000000000000000000000000000000000000000000000000000000000000000253134                                           00000000000000000          0000000000000000000000000000000000CIF               N1IPI                                                                                                   000000000                      
S555    0000751840305201117769         030520110000000000015355000000000000000000000000000000000000000000000000000000000000000000000000000000000000000000000000000000000000000000153550                                           00000000000000000          0000000000000000000000000000000000CIF               N1IPI                                                                                                   000000000                      
S555    0000751850305201117769         030520110000000000036523900000000000000000000000000000000000000000000000000000000000000000000000000000000000000000000000000000000000000000365239                                           00000000000000000          0000000000000000000000000000000000CIF               N1IPI                                                                                                   000000000                      
S555    0000751860305201117769         030520110000000000006108000000000000000000000000000000000000000000000000000000000000000000000000000000000000000000000000000000000000000000061080                                           00000000000000000          0000000000000000000000000000000000CIF               N1IPI                                                                                                   000000000                      
S555    0000751870305201117769         030520110000000000020318800000000000000000000000000000000000000000000000000000000000000000000000000000000000000000000000000000000000000000203188                                           00000000000000000          0000000000000000000000000000000000CIF               N1IPI                                                                                                   000000000                      
S555    0000751880305201117769         030520110000000000045299300000000000000000000000000000000000000000000000000000000000000000000000000000000000000000000000000000000000000000452993                                           00000000000000000          0000000000000000000000000000000000CIF               N1IPI                                                                                                   000000000                      
S555    0000751890305201117769         030520110000000000005694600000000000000000000000000000000000000000000000000000000000000000000000000000000000000000000000000000000000000000056946                                           00000000000000000          0000000000000000000000000000000000CIF               N1IPI                                                                                                   000000000                      
S555    0000751900305201117769         030520110000000000038812500000000000000000000000000000000000000000000000000000000000000000000000000000000000000000000000000000000000000000388125                                           00000000000000000          0000000000000000000000000000000000CIF               N1IPI                                                                                                   000000000                      
S555    0000751910305201117769         030520110000000000010207600000000000000000000000000000000000000000000000000000000000000000000000000000000000000000000000000000000000000000102076                                           00000000000000000          0000000000000000000000000000000000CIF               N1IPI                                                                                                   000000000                      
S555    0000751920305201114637         030520110000000000036876600000000000000000000000000000000000000000000000000000000000000000000000000000000000000000000000000000000000000000368766                                           00000000000000000          0000000000000000000000000000000000CIF               N1IPI                                                                                                   000000000                      
S555    0000751930305201118154         030520110000000000028465500000000000000000000000000000000000000000000000000000000000000000000000000000000000000000000000000000000000000000284655                                           00000000000000000          0000000000000000000000000000000000CIF               N1IPI                                                                                                   000000000                      
S555    0000751940305201118162         030520110000000000069717800000000000000000000000000000000000000000000000000000000000000000000000000000000000000000000000000000000000000000697178                                           00000000000000000          0000000000000000000000000000000000CIF               N1IPI                                                                                                   000000000                      
S555    0000751950305201118156         030520110000000000039827700000000000000000000000000000000000000000000000000000000000000000000000000000000000000000000000000000000000000000398277                                           00000000000000000          0000000000000000000000000000000000CIF               N1IPI                                                                                                   000000000                      
S555    0000751960305201112896         030520110000000000023604300000000000000000000000000000000000000000000000000000000000000011590000000000000000000000000000000000000000000000247633                                           00000000000000000          0000000000000000000000000000000000CIF               N1IPI                                                                                                   000000000                      
S555    0000751970305201112896         030520110000000000012203700000000000000000000000000000000000000000000000000000000000000000000000000000000000000000000000000000000000000000000000                                           00000000000000000          0000000000000000000000000000000000CIF               S1IPI                                                                                                   000000000                      
S555    0000751980305201112896         030520110000000000253794000000000000000000000000000000000000000000000000000000000000000124613000000000000000000000000000000000000000000002662553                                           00000000000000000          0000000000000000000000000000000000CIF               N1IPI                                                                                                   000000000                      
S555    0000751990305201114207         030520110000000000068305000000000000000000000000000000000000000000000000000000000000000000000000000000000000000000000000011243000000000000795480282906380                                  00000000000000000          0000000000000000000000000000000000CIF               N1IPI                                                                                                   000000000                      
S555    0000752000305201118353         030520110000000000022153900000000000000000000000000000000000000000000000000000000000000000000000000000000000000000000000003646400000000000258003282906380                                  00000000000000000          0000000000000000000000000000000000CIF               N1IPI                                                                                                   000000000                      
S555    0000752010305201116161         030520110000000000008447100000000000000000000000000000000000000000000000000000000000000000000000000000000000000000000000000857400000000000093045134006453                                  00000000000000000          0000000000000000000000000000000000CIF               N1IPI                                                                                                   000000000                      
S555    0000752020305201113023         030520110000000000015061900000000000000000000000000000000000000000000000000000000000000000000000000000000000000000000000001528900000000000165908134006453                                  00000000000000000          0000000000000000000000000000000000CIF               N1IPI                                                                                                   000000000                      
S555    0000752030305201117895         030520110000000000124987600000000000000000000000000000000000000000000000000000000000000000000000000000000013010000000000012699500000000001378172134006453                                  00000000000000000          0000000000000000000000000000000000CIF               N1IPI                                                                                                   000000000                      
S555    0000752040305201117895         030520110000000000005203900000000000000000000000000000000000000000000000000000000000000000000000000000000000000000000000000000000000000000000000134006453                                  00000000000000000          0000000000000000000000000000000000CIF               S1IPI                                                                                                   000000000                      
S555    0000752050305201117604         030520110000000000039581200000000000000000000000000000000000000000000000000000000000000000000000000000000000000000000000004017500000000000435987134006453                                  00000000000000000          0000000000000000000000000000000000CIF               N1IPI                                                                                                   000000000                      
S555    000075206030520113389          030520110000000000152219200000000000000000000000000000000000000000000000000000000000000000000000000000000000000000000000015450400000000001676696134006453                                  00000000000000000          0000000000000000000000000000000000CIF               N1IPI                                                                                                   000000000                      
S555    000075207030520113389          030520110000000000017502800000000000000000000000000000000000000000000000000000000000000000000000000000000000000000000000001776500000000000192793134006453                                  00000000000000000          0000000000000000000000000000000000CIF               N1IPI                                                                                                   000000000                      
S555    0000752080305201117895         030520110000000000123793000000000000000000000000000000000000000000000000000000000000000000000000000000000000000000000000012564900000000001363579134006453                                  00000000000000000          0000000000000000000000000000000000CIF               N1decreto 6006                                                                                          000000000                      
S555    0000752090305201112896         030520110000000000012203700000000000000000000000000000000000000000000000000000000000000005992000000000000000000000000000000000000000000000128029                                           00000000000000000          0000000000000000000000000000000000CIF               N1IPI                                                                                                   000000000                      
S555    0000752100305201114207         030520110000000000067312100000000000000000000000000000000000000000000000000000000000000000000000000000000000000000000000011079700000000000783918282906380                                  00000000000000000          0000000000000000000000000000000000CIF               N1IPI                                                                                                   000000000                      
S555    0000752110305201117895         030520110000000000005203900000000000000000000000000000000000000000000000000000000000000000000000000000000000000000000000000528200000000000057321134006453                                  00000000000000000          0000000000000000000000000000000000CIF               N1IPI                                                                                                   000000000                      
S555    000075212030520119920          030520110000000000011620000000000000000000000000000000000000000000000000000000000000000000000000000000000000000000000000000711100000000000123311438010070113                               00000000000000000          0000000000000000000000000000000000CIF               N1IPI                                                                                                   000000000                      
S555    000075213030520119920          030520110000000000010020000000000000000000000000000000000000000000000000000000000000000000000000000000000000000000000000000613200000000000106332438010070113                               00000000000000000          0000000000000000000000000000000000CIF               N1IPI                                                                                                   000000000                      
S555    000075214030520119920          030520110000000000025410000000000000000000000000000000000000000000000000000000000000000000000000000000000000000000000000001555000000000000269650438010070113                               00000000000000000          0000000000000000000000000000000000CIF               N1IPI                                                                                                   000000000                      
S555    0000752150305201118783         030520110000000000003811900000000000000000000000000000000000000000000000000000000000000000000000000000000006580000000000000261700000000000041394438010070113                               00000000000000000          0000000000000000000000000000000000CIF               N1IPI                                                                                                   000000000                      
S555    0000752160305201118783         030520110000000000032949300000000000000000000000000000000000000000000000000000000000000000000000000000000000000000000000002016500000000000349658438010070113                               00000000000000000          0000000000000000000000000000000000CIF               N1IPI                                                                                                   000000000                      
S555    0000752170305201118783         030520110000000000040763800000000000000000000000000000000000000000000000000000000000000000000000000000000000000000000000002494700000000000432585438010070113                               00000000000000000          0000000000000000000000000000000000CIF               N1IPI                                                                                                   000000000                      
S555    0000752180305201113513         030520110000000000005625200000000000000000000000000000000000000000000000000000000000000000000000000000000000000000000000000344300000000000059695438010070113                               00000000000000000          0000000000000000000000000000000000CIF               N1IPI                                                                                                   000000000                      
S555    0000752190305201113513         030520110000000000013973700000000000000000000000000000000000000000000000000000000000000000000000000000000000000000000000000855200000000000148289438010070113                               00000000000000000          0000000000000000000000000000000000CIF               N1IPI                                                                                                   000000000                      
S555    0000752200305201118766         030520110000000000013755200000000000000000000000000000000000000000000000000000000000000000000000000000000000000000000000000841900000000000145971438010070113                               00000000000000000          0000000000000000000000000000000000CIF               N1IPI                                                                                                   000000000                      
S555    0000752210305201114963         030520110000000000033987300000000000000000000000000000000000000000000000000000000000000000000000000000000000000000000000002080100000000000360674438010070113                               00000000000000000          0000000000000000000000000000000000CIF               N1IPI                                                                                                   000000000                      
S555    0000752220305201114963         030520110000000000001927500000000000000000000000000000000000000000000000000000000000000000000000000000000000000000000000000111000000000000020385438010070113                               00000000000000000          0000000000000000000000000000000000CIF               N1IPI                                                                                                   000000000                      
S555    0000752230305201115414         030520110000000000009078800000000000000000000000000000000000000000000000000000000000000000000000000000000000000000000000000555600000000000096344438010070113                               00000000000000000          0000000000000000000000000000000000CIF               N1IPI                                                                                                   000000000                      
S555    0000752240305201115414         030520110000000000022291200000000000000000000000000000000000000000000000000000000000000000000000000000000000000000000000001364200000000000236554438010070113                               00000000000000000          0000000000000000000000000000000000CIF               N1IPI                                                                                                   000000000                      
S555    0000752250305201113094         030520110000000000007720000000000000000000000000000000000000000000000000000000000000000000000000000000000000000000000000000472500000000000081925438010070113                               00000000000000000          0000000000000000000000000000000000CIF               N1IPI                                                                                                   000000000                      
S555    0000752260305201113094         030520110000000000026684700000000000000000000000000000000000000000000000000000000000000000000000000000000000000000000000001633200000000000283179438010070113                               00000000000000000          0000000000000000000000000000000000CIF               N1IPI                                                                                                   000000000                      
S555    0000752270305201118391         030520110000000000017742300000000000000000000000000000000000000000000000000000000000000000000000000000000000000000000000001085900000000000188282438010070113                               00000000000000000          0000000000000000000000000000000000CIF               N1IPI                                                                                                   000000000                      
S555    0000752280305201111868         030520110000000000025038600000000000000000000000000000000000000000000000000000000000000000000000000000000000000000000000001532400000000000265710438010070113                               00000000000000000          0000000000000000000000000000000000CIF               N1IPI                                                                                                   000000000                      
S555    0000752290305201118179         030520110000000000036171300000000000000000000000000000000000000000000000000000000000000000000000000000000000000000000000002213700000000000383850438010070113                               00000000000000000          0000000000000000000000000000000000CIF               N1IPI                                                                                                   000000000                      
S555    0000752300305201118126         030520110000000000011780000000000000000000000000000000000000000000000000000000000000000000000000000000000000000000000000000720900000000000125009438010070113                               00000000000000000          0000000000000000000000000000000000CIF               N1IPI                                                                                                   000000000                      
S555    00007523103052011415           030520110000000000064103300000000000000000000000000000000000000000000000000000000000000000000000000000000000000000000000003923200000000000680265438010070113                               00000000000000000          0000000000000000000000000000000000CIF               N1IPI                                                                                                   000000000                      
S555    0000752320305201110259         030520110000000000039289300000000000000000000000000000000000000000000000000000000000000000000000000000000000460000000000002406500000000000417004438010070113                               00000000000000000          0000000000000000000000000000000000CIF               N1IPI                                                                                                   000000000                      
S555    0000752330305201110259         030520110000000000005186300000000000000000000000000000000000000000000000000000000000000000000000000000000000000000000000000298800000000000054851438010070113                               00000000000000000          0000000000000000000000000000000000CIF               N1IPI                                                                                                   000000000                      
S555    000075234030520111448          030520110000000000012787600000000000000000000000000000000000000000000000000000000000000000000000000000000000000000000000000782600000000000135702438010070113                               00000000000000000          0000000000000000000000000000000000CIF               N1IPI                                                                                                   000000000                      
S555    000075235030520111448          030520110000000000045244300000000000000000000000000000000000000000000000000000000000000000000000000000000000000000000000002606200000000000478505438010070113                               00000000000000000          0000000000000000000000000000000000CIF               N1IPI                                                                                                   000000000                      
S555    000075236030520111327          030520110000000000002048200000000000000000000000000000000000000000000000000000000000000000000000000000000000000000000000000117900000000000021661438010070113                               00000000000000000          0000000000000000000000000000000000CIF               N1IPI                                                                                                   000000000                      
S555    000075237030520111327          030520110000000000010511000000000000000000000000000000000000000000000000000000000000000000000000000000000000000000000000000605400000000000111164438010070113                               00000000000000000          0000000000000000000000000000000000CIF               N1IPI                                                                                                   000000000                      
S555    000075238030520111327          030520110000000000019893100000000000000000000000000000000000000000000000000000000000000000000000000000000000000000000000001217400000000000211105438010070113                               00000000000000000          0000000000000000000000000000000000CIF               N1IPI                                                                                                   000000000                      
S555    0000752390305201116577         030520110000000000014421500000000000000000000000000000000000000000000000000000000000000000000000000000000000000000000000000830700000000000152522438010070113                               00000000000000000          0000000000000000000000000000000000CIF               N1IPI                                                                                                   000000000                      
S555    0000752400305201116577         030520110000000000108574700000000000000000000000000000000000000000000000000000000000000000000000000000000000000000000000006644900000000001152196438010070113                               00000000000000000          0000000000000000000000000000000000CIF               N1IPI                                                                                                   000000000                      
S555    0000752410305201117628         030520110000000000009154100000000000000000000000000000000000000000000000000000000000000000000000000000000000000000000000000000000000000000091541                                           00000000000000000          0000000000000000000000000000000000CIF               N1IPI                                                                                                   000000000                      
S555    0000752420305201117628         030520110000000000025448300000000000000000000000000000000000000000000000000000000000000000000000000000000000000000000000000000000000000000254483                                           00000000000000000          0000000000000000000000000000000000CIF               N1IPI                                                                                                   000000000                      
S555    0000752430305201117628         030520110000000000009074400000000000000000000000000000000000000000000000000000000000000000000000000000000000000000000000000000000000000000090744                                           00000000000000000          0000000000000000000000000000000000CIF               N1IPI                                                                                                   000000000                      
S555    0000752440305201117628         030520110000000000012469300000000000000000000000000000000000000000000000000000000000000000000000000000000000000000000000000000000000000000124693                                           00000000000000000          0000000000000000000000000000000000CIF               N1IPI                                                                                                   000000000                      
S555    0000752450305201117628         030520110000000000107043800000000000000000000000000000000000000000000000000000000000000000000000000000000000000000000000000000000000000001070438                                           00000000000000000          0000000000000000000000000000000000CIF               N1IPI                                                                                                   000000000                      
S555    0000752460305201117628         030520110000000000017854300000000000000000000000000000000000000000000000000000000000000000000000000000000000000000000000000000000000000000178543                                           00000000000000000          0000000000000000000000000000000000CIF               N1IPI                                                                                                   000000000                      
S555    0000752470305201117628         030520110000000000206577000000000000000000000000000000000000000000000000000000000000000000000000000000000000000000000000000000000000000002065770                                           00000000000000000          0000000000000000000000000000000000CIF               N1IPI                                                                                                   000000000                      
S555    0000752480305201117628         030520110000000000008709200000000000000000000000000000000000000000000000000000000000000000000000000000000000000000000000000000000000000000087092                                           00000000000000000          0000000000000000000000000000000000CIF               N1IPI                                                                                                   000000000                      
S555    0000752490305201117628         030520110000000000010308900000000000000000000000000000000000000000000000000000000000000000000000000000000000000000000000000000000000000000103089                                           00000000000000000          0000000000000000000000000000000000CIF               N1IPI                                                                                                   000000000                      
S555    0000752500305201117628         030520110000000000018358000000000000000000000000000000000000000000000000000000000000000000000000000000000000000000000000000000000000000000183580                                           00000000000000000          0000000000000000000000000000000000CIF               N1IPI                                                                                                   000000000                      
S555    0000752510305201117628         030520110000000000019199600000000000000000000000000000000000000000000000000000000000000000000000000000000000000000000000000000000000000000191996                                           00000000000000000          0000000000000000000000000000000000CIF               N1IPI                                                                                                   000000000                      
S555    0000752520305201117628         030520110000000000092818300000000000000000000000000000000000000000000000000000000000000000000000000000000000000000000000000000000000000000928183                                           00000000000000000          0000000000000000000000000000000000CIF               N1IPI                                                                                                   000000000                      
S555    0000752530305201117628         030520110000000000018358000000000000000000000000000000000000000000000000000000000000000000000000000000000000000000000000000000000000000000183580                                           00000000000000000          0000000000000000000000000000000000CIF               N1IPI                                                                                                   000000000                      
S555    0000752540305201117628         030520110000000000006238600000000000000000000000000000000000000000000000000000000000000000000000000000000000000000000000000000000000000000062386                                           00000000000000000          0000000000000000000000000000000000CIF               N1IPI                                                                                                   000000000                      
S555    0000752550305201117628         030520110000000000005829300000000000000000000000000000000000000000000000000000000000000000000000000000000000000000000000000000000000000000058293                                           00000000000000000          0000000000000000000000000000000000CIF               N1IPI                                                                                                   000000000                      
S555    0000752560305201111972         030520110000000000020210300000000000000000000000000000000000000000000000000000000000000000000000000000000000000000000000001164000000000000213743438010070113                               00000000000000000          0000000000000000000000000000000000FOB               N1IPI                                                                                                   000000000                      
S555    0000752570305201111972         030520110000000000045439300000000000000000000000000000000000000000000000000000000000000000000000000000000000000000000000002780900000000000482202438010070113                               00000000000000000          0000000000000000000000000000000000FOB               N1IPI                                                                                                   000000000                      
S555    000075258030520115895          030520110000000000003600000000000000000000000000000000000000000000000000000000000000000000000000000000000000000000000000000000000000000000000000438010070113                               00000000000000000          0000000000000000000000000000000000FOB               S1SUCATA                                                                                                000000000                      
S555    000075259030520115895          030520110000000000003600000000000000000000000000000000000000000000000000000000000000000000000000000000000000000000000000000000000000000000036000438010070113                               00000000000000000          0000000000000000000000000000000000FOB               N1SUCATA                                                                                                000000000                      
S555    0000752600405201119065         040520110000000000084410200000000000000000000000000000000000000000000000000000000000000000000000000000000000000000000000005166000000000000895762438010070113                               00000000000000000          0000000000000000000000000000000000CIF               N1IPI                                                                                                   000000000                      
S555    0000752610405201119025         040520110000000000010540000000000000000000000000000000000000000000000000000000000000000000000000000000000000000000000000000645000000000000111850438010070113                               00000000000000000          0000000000000000000000000000000000CIF               N1IPI                                                                                                   000000000                      
S555    000075262040520119666          040520110000000000051430200000000000000000000000000000000000000000000000000000000000000000000000000000000000000000000000003147600000000000545778438010070113                               00000000000000000          0000000000000000000000000000000000CIF               N1IPI                                                                                                   000000000                      
S555    0000752630405201110302         040520110000000000030601100000000000000000000000000000000000000000000000000000000000000000000000000000000000000000000000001872900000000000324740438010070113                               00000000000000000          0000000000000000000000000000000000CIF               N1IPI                                                                                                   000000000                      
S555    0000752640405201112874         040520110000000000018427200000000000000000000000000000000000000000000000000000000000000000000000000000000000000000000000001127800000000000195550438010070113                               00000000000000000          0000000000000000000000000000000000CIF               N1IPI                                                                                                   000000000                      
S555    0000752650405201119062         040520110000000000030640300000000000000000000000000000000000000000000000000000000000000000000000000000000008620000000000001912300000000000326388438010070113                               00000000000000000          0000000000000000000000000000000000CIF               N1IPI                                                                                                   000000000                      
S555    0000752660405201112705         040520110000000000010660000000000000000000000000000000000000000000000000000000000000000000000000000000000000000000000000000652400000000000113124438010070113                               00000000000000000          0000000000000000000000000000000000CIF               N1IPI                                                                                                   000000000                      
S555    0000752670405201119024         040520110000000000018540000000000000000000000000000000000000000000000000000000000000000000000000000000000001600000000000001141600000000000196976438010070113                               00000000000000000          0000000000000000000000000000000000CIF               N1IPI                                                                                                   000000000                      
S555    0000752680405201112826         040520110000000000012901000000000000000000000000000000000000000000000000000000000000000000000000000000000000000000000000000743100000000000136441438010070113                               00000000000000000          0000000000000000000000000000000000CIF               N1IPI                                                                                                   000000000                      
S555    000075269040520119463          040520110000000000017372700000000000000000000000000000000000000000000000000000000000000000000000000000000000000000000000001000700000000000183734438010070113                               00000000000000000          0000000000000000000000000000000000CIF               N1IPI                                                                                                   000000000                      
S555    000075270040520119463          040520110000000000033212800000000000000000000000000000000000000000000000000000000000000000000000000000000000000000000000002032600000000000352454438010070113                               00000000000000000          0000000000000000000000000000000000CIF               N1IPI                                                                                                   000000000                      
S555    0000752710405201110762         040520110000000000021640000000000000000000000000000000000000000000000000000000000000000000000000000000000000000000000000001324300000000000229643438010070113                               00000000000000000          0000000000000000000000000000000000CIF               N1IPI                                                                                                   000000000                      
S555    0000752720405201112979         040520110000000000008719200000000000000000000000000000000000000000000000000000000000000000000000000000000000000000000000000502200000000000092214438010070113                               00000000000000000          0000000000000000000000000000000000CIF               N1IPI                                                                                                   000000000                      
S555    0000752730405201119088         040520110000000000009009100000000000000000000000000000000000000000000000000000000000000000000000000000000000000000000000000551400000000000095605438010070113                               00000000000000000          0000000000000000000000000000000000CIF               N1IPI                                                                                                   000000000                      
S555    0000752740405201119005         040520110000000000027625700000000000000000000000000000000000000000000000000000000000000000000000000000000000000000000000001690700000000000293164438010070113                               00000000000000000          0000000000000000000000000000000000CIF               N1IPI                                                                                                   000000000                      
S555    0000752750405201112739         040520110000000000026607400000000000000000000000000000000000000000000000000000000000000000000000000000000000000000000000001628400000000000282358438010070113                               00000000000000000          0000000000000000000000000000000000CIF               N1IPI                                                                                                   000000000                      
S555    000075276040520119738          040520110000000000021190000000000000000000000000000000000000000000000000000000000000000000000000000000000000000000000000001296900000000000224869438010070113                               00000000000000000          0000000000000000000000000000000000CIF               N1IPI                                                                                                   000000000                      
S555    000075277040520115022          040520110000000000010696600000000000000000000000000000000000000000000000000000000000000000000000000000000000000000000000000654600000000000113512438010070113                               00000000000000000          0000000000000000000000000000000000CIF               N1IPI                                                                                                   000000000                      
S555    000075278040520119650          040520110000000000006150300000000000000000000000000000000000000000000000000000000000000000000000000000000000000000000000000376300000000000065266438010070113                               00000000000000000          0000000000000000000000000000000000CIF               N1IPI                                                                                                   000000000                      
S555    0000752790405201112981         040520110000000000046748800000000000000000000000000000000000000000000000000000000000000000000000000000000000000000000000002861000000000000496098438010070113                               00000000000000000          0000000000000000000000000000000000CIF               N1IPI                                                                                                   000000000                      
S555    0000752800405201112981         040520110000000000006158400000000000000000000000000000000000000000000000000000000000000000000000000000000000000000000000000354700000000000065131438010070113                               00000000000000000          0000000000000000000000000000000000CIF               N1IPI                                                                                                   000000000                      
S555    000075281040520114620          040520110000000000019585200000000000000000000000000000000000000000000000000000000000000000000000000000000000000000000000001198700000000000207839438010070113                               00000000000000000          0000000000000000000000000000000000CIF               N1IPI                                                                                                   000000000                      
S555    000075282040520119683          040520110000000000050709200000000000000000000000000000000000000000000000000000000000000000000000000000000000000000000000003103300000000000538125438010070113                               00000000000000000          0000000000000000000000000000000000CIF               N1IPI                                                                                                   000000000                      
S555    000075283040520119683          040520110000000000176500800000000000000000000000000000000000000000000000000000000000000000000000000000000000000000000000010166700000000001866675438010070113                               00000000000000000          0000000000000000000000000000000000CIF               N1IPI                                                                                                   000000000                      
S555    00007528404052011529           040520110000000000048077700000000000000000000000000000000000000000000000000000000000000000000000000000000000000000000000002942500000000000510202438010070113                               00000000000000000          0000000000000000000000000000000000CIF               N1IPI                                                                                                   000000000                      
S555    0000752850405201112987         040520110000000000047532100000000000000000000000000000000000000000000000000000000000000000000000000000000000000000000000002737800000000000502699438010070113                               00000000000000000          0000000000000000000000000000000000CIF               N1IPI                                                                                                   000000000                      
S555    0000752860405201116649         040520110000000000011172000000000000000000000000000000000000000000000000000000000000000000000000000000000000000000000000000683700000000000118557438010070113                               00000000000000000          0000000000000000000000000000000000FOB               N1IPI                                                                                                   000000000                      
S555    0000752870405201116649         040520110000000000047762000000000000000000000000000000000000000000000000000000000000000000000000000000000000000000000000002751200000000000505132438010070113                               00000000000000000          0000000000000000000000000000000000FOB               N1IPI                                                                                                   000000000                      
S555    0000752880405201112995         040520110000000000020953500000000000000000000000000000000000000000000000000000000000000000000000000000000000000000000000000000000000000000000000438010070113                               00000000000000000          0000000000000000000000000000000000CIF               S1IPI                                                                                                   000000000                      
