5    0070520110105201118            00113F                 ITEM CONTROLE TOTAL                          0000000000010000000000000000000000000000000000000010000000000000000000000
5    0091520110105201113            001DD                  Material D.Direto - TRIBUTADO                0000000000010000000000000000000000000000000000000000000000000000000000000
1    0000010010305201113            00140D                 ITEM ATIVO IMOBILIZADO D¿BITO DIRETO         0000000000500000000000000000000000002000000000000500000000000000000100000
1    0000010060305201113            00140D                 ITEM ATIVO IMOBILIZADO D¿BITO DIRETO         0000000000015000000000000000000000002000000000000015000000000000000003000
1    0000010060305201113            00213D                 ITEM D¿BITO DIRETO                           0000000000040000000000000000000000005000000000000040000000000000000020000
1    0000012410305201113            00140D                 ITEM ATIVO IMOBILIZADO D¿BITO DIRETO         0000000000056000000000000000000000012000000000000056000000000000000067200
1    0000012540305201113            00113D                 ITEM D¿BITO DIRETO                           0000000000045700000000000000000000005000000000000041130000000000000020565
1    0000045780305201113            00140D                 ITEM ATIVO IMOBILIZADO D¿BITO DIRETO         0000000000062500000000000000000000002000000000000056250000000000000011250
1    0000045780305201113            00213D                 ITEM D¿BITO DIRETO                           0000000000064800000000000000000000005000000000000058320000000000000029160
1    0000121570305201113            00113D                 ITEM D¿BITO DIRETO                           0000000000027890000000000000000000000000000000000000000000000000000000000
1    0000145230305201113            00140D                 ITEM ATIVO IMOBILIZADO D¿BITO DIRETO         0000000000060000000000000000000000002000000000000060000000000000000000000
1    0000145780305201113            00140D                 ITEM ATIVO IMOBILIZADO D¿BITO DIRETO         0000000000010000000000000000000000002000000000000009000000000000000001800
1    0000145780305201113            00213D                 ITEM D¿BITO DIRETO                           0000000000018000000000000000000000005000000000000016200000000000000008100
1    0000148560305201113            00140D                 ITEM ATIVO IMOBILIZADO D¿BITO DIRETO         0000000000150000000000000000000000002000000000000150000000000000000030000
